:020000040000fa
:080000000002040000000000f2
:020000040000fa
:0400080002030000ef
:020000040000fa
:04000c0044030000a9
:020000040000fa
:04001000a403000045
:020000040000fa
:0400140022030000c3
:020000040000fa
:04001800640300007d
:020000040000fa
:04001c008403000059
:020000040000fa
:04002000c403000015
:020000040000fa
:04002400460400008e
:020000040000fa
:04002800460400008a
:020000040000fa
:04002c004604000086
:020000040000fa
:040030004604000082
:020000040000fa
:0400340010040000b4
:020000040000fa
:04003800460400007a
:020000040000fa
:04003c004604000076
:020000040000fa
:040040004604000072
:020000040000fa
:04004400460400006e
:020000040000fa
:04004800460400006a
:020000040000fa
:04004c004604000066
:020000040000fa
:040050004604000062
:020000040000fa
:04005400460400005e
:020000040000fa
:04005800460400005a
:020000040000fa
:04005c004604000056
:020000040000fa
:040060004604000052
:020000040000fa
:04006400460400004e
:020000040000fa
:04006800460400004a
:020000040000fa
:04006c004604000046
:020000040000fa
:040070004604000042
:020000040000fa
:04007400460400003e
:020000040000fa
:04007800460400003a
:020000040000fa
:04007c004604000036
:020000040000fa
:040080004604000032
:020000040000fa
:04008400460400002e
:020000040000fa
:04008800460400002a
:020000040000fa
:04008c004604000026
:020000040000fa
:040090004604000022
:020000040000fa
:04009400460400001e
:020000040000fa
:04009800460400001a
:020000040000fa
:04009c004604000016
:020000040000fa
:0400a0004604000012
:020000040000fa
:0400a400460400000e
:020000040000fa
:0400a800460400000a
:020000040000fa
:0400ac004604000006
:020000040000fa
:0400b0004604000002
:020000040000fa
:0400b40046040000fe
:020000040000fa
:0400b80046040000fa
:020000040000fa
:0400bc0046040000f6
:020000040000fa
:0400c00046040000f2
:020000040000fa
:0400c40046040000ee
:020000040000fa
:0400c80046040000ea
:020000040000fa
:0400cc0046040000e6
:020000040000fa
:0400d00046040000e2
:020000040000fa
:0400d40046040000de
:020000040000fa
:0400d80046040000da
:020000040000fa
:0400dc0046040000d6
:020000040000fa
:0400e00046040000d2
:020000040000fa
:0400e40046040000ce
:020000040000fa
:0400e80046040000ca
:020000040000fa
:0400ec0046040000c6
:020000040000fa
:0400f00046040000c2
:020000040000fa
:0400f40046040000be
:020000040000fa
:0400f80046040000ba
:020000040000fa
:0400fc0046040000b6
:020000040000fa
:0401000046040000b1
:020000040000fa
:0401040046040000ad
:020000040000fa
:0401080046040000a9
:020000040000fa
:04010c0046040000a5
:020000040000fa
:0401100046040000a1
:020000040000fa
:04011400460400009d
:020000040000fa
:040118004604000099
:020000040000fa
:04011c004604000095
:020000040000fa
:040120004604000091
:020000040000fa
:04012400460400008d
:020000040000fa
:040128004604000089
:020000040000fa
:04012c004604000085
:020000040000fa
:040130004604000081
:020000040000fa
:04013400460400007d
:020000040000fa
:040138004604000079
:020000040000fa
:04013c004604000075
:020000040000fa
:040140004604000071
:020000040000fa
:04014400460400006d
:020000040000fa
:040148004604000069
:020000040000fa
:04014c004604000065
:020000040000fa
:040150004604000061
:020000040000fa
:04015400460400005d
:020000040000fa
:040158004604000059
:020000040000fa
:04015c004604000055
:020000040000fa
:040160004604000051
:020000040000fa
:04016400460400004d
:020000040000fa
:040168004604000049
:020000040000fa
:04016c004604000045
:020000040000fa
:040170004604000041
:020000040000fa
:04017400460400003d
:020000040000fa
:040178004604000039
:020000040000fa
:04017c004604000035
:020000040000fa
:040180004604000031
:020000040000fa
:04018400460400002d
:020000040000fa
:040188004604000029
:020000040000fa
:04018c004604000025
:020000040000fa
:040190004604000021
:020000040000fa
:04019400460400001d
:020000040000fa
:040198004604000019
:020000040000fa
:04019c004604000015
:020000040000fa
:0401a0004604000011
:020000040000fa
:0401a400460400000d
:020000040000fa
:0401a8004604000009
:020000040000fa
:0401ac004604000005
:020000040000fa
:0401b0004604000001
:020000040000fa
:0401b40046040000fd
:020000040000fa
:0401b80046040000f9
:020000040000fa
:0401bc0046040000f5
:020000040000fa
:0401c00046040000f1
:020000040000fa
:0401c40046040000ed
:020000040000fa
:0401c80046040000e9
:020000040000fa
:0401cc0046040000e5
:020000040000fa
:0401d00046040000e1
:020000040000fa
:0401d40046040000dd
:020000040000fa
:0401d80046040000d9
:020000040000fa
:0401dc0046040000d5
:020000040000fa
:0401e00046040000d1
:020000040000fa
:0401e40046040000cd
:020000040000fa
:0401e80046040000c9
:020000040000fa
:0401ec0046040000c5
:020000040000fa
:0401f00046040000c1
:020000040000fa
:0401f40046040000bd
:020000040000fa
:0401f80046040000b9
:020000040000fa
:0401fc0046040000b5
:020000040000fa
:0402000046040000b0
:020000040000fa
:0402040046040000ac
:020000040000fa
:0402080046040000a8
:020000040000fa
:04020c0046040000a4
:020000040000fa
:0402100046040000a0
:020000040000fa
:04021400460400009c
:020000040000fa
:040218004604000098
:020000040000fa
:04021c004604000094
:020000040000fa
:040220004604000090
:020000040000fa
:04022400460400008c
:020000040000fa
:040228004604000088
:020000040000fa
:04022c004604000084
:020000040000fa
:040230004604000080
:020000040000fa
:04023400460400007c
:020000040000fa
:040238004604000078
:020000040000fa
:04023c004604000074
:020000040000fa
:040240004604000070
:020000040000fa
:04024400460400006c
:020000040000fa
:040248004604000068
:020000040000fa
:04024c004604000064
:020000040000fa
:040250004604000060
:020000040000fa
:04025400460400005c
:020000040000fa
:040258004604000058
:020000040000fa
:04025c004604000054
:020000040000fa
:040260004604000050
:020000040000fa
:04026400460400004c
:020000040000fa
:040268004604000048
:020000040000fa
:04026c004604000044
:020000040000fa
:040270004604000040
:020000040000fa
:04027400460400003c
:020000040000fa
:040278004604000038
:020000040000fa
:04027c004604000034
:020000040000fa
:040280004604000030
:020000040000fa
:04028400460400002c
:020000040000fa
:040288004604000028
:020000040000fa
:04028c004604000024
:020000040000fa
:040290004604000020
:020000040000fa
:04029400460400001c
:020000040000fa
:040298004604000018
:020000040000fa
:04029c004604000014
:020000040000fa
:0402a0004604000010
:020000040000fa
:0402a400460400000c
:020000040000fa
:0402a8004604000008
:020000040000fa
:0402ac004604000004
:020000040000fa
:0402b0004604000000
:020000040000fa
:0402b40046040000fc
:020000040000fa
:0402b80046040000f8
:020000040000fa
:0402bc0046040000f4
:020000040000fa
:0402c00046040000f0
:020000040000fa
:0402c40046040000ec
:020000040000fa
:0402c80046040000e8
:020000040000fa
:0402cc0046040000e4
:020000040000fa
:0402d00046040000e0
:020000040000fa
:0402d40046040000dc
:020000040000fa
:0402d80046040000d8
:020000040000fa
:0402dc0046040000d4
:020000040000fa
:0402e00046040000d0
:020000040000fa
:0402e40046040000cc
:020000040000fa
:0402e80046040000c8
:020000040000fa
:0402ec0046040000c4
:020000040000fa
:0402f00046040000c0
:020000040000fa
:0402f40046040000bc
:020000040000fa
:0402f80046040000b8
:020000040000fa
:0402fc0046040000b4
:020000040000fa
:0403000046040000af
:020000040000fa
:0403040046040000ab
:020000040000fa
:0403080046040000a7
:020000040000fa
:04030c0046040000a3
:020000040000fa
:04031000460400009f
:020000040000fa
:100400004f0321000eff24000e01880000000000b1
:10041000000020000000e000020032000001200087
:1004200020028800140007001a0107000000e00005
:1004300003003a00a0d22000010020000200370093
:100440000000200001002000810f70000100320038
:100450000f000700000020000000e0000200320052
:1004600000000200000000007a0c02000000000002
:100470000040da000000fe00c01720000000e0008d
:1004800002003200002020009001880000000600d9
:10049000a1028800800478000000eb001f003700f4
:1004a000e284440054a0b4009905ba00e2844400f8
:1004b00054a0b4009906ba00e284440054a0b400e9
:1004c0000006eb00476fde00fd07b200ae018800ba
:1004d000636ce10003003a000ad801000000eb0061
:1004e0000e003700606ce10008003a00004deb00a0
:1004f0000a05e800020039003420ec000af0a000f0
:100500008b05e900f9ff3e00040037006168e10057
:10051000010032000086eb000b00070019c7ba008b
:100520000e04e0001905ba0003003a000a00e000da
:10053000dbff3a0000000600fe07b200ae028800b2
:100540008a047800f5ff37000cd0a300e20f4d00bd
:100550001c00390089027800354dba000a05e80010
:10056000020039003420ec000af0a0008b05e900fd
:100570000f003200254dba000a05e80002003900dc
:100580003420ec000af0a0008b05e90008003200de
:100590000c00e0000600320015cdba000a05e800a4
:1005a000020039003420ec000af0a0008b05e900bd
:1005b0008984e80054a0b4000b00e000e2ff3a0098
:1005c000000006009902ba00055d78008b05e9007d
:1005d000f7ff3200c82ade00055d78008b05e900d0
:1005e000f3ff32000c00e000f1ff320019ddba0029
:1005f000eeff37005c0a040000000000c60a040099
:10060000000000003600f800809fbe00829fbe0000
:10061000849fbe00869fbe000000fa00c028a9008b
:100620000000eb00420507000080fa004f03be0007
:100630004f02be004f01be004f00be003600f90061
:10064000004006003600f800809fbe00829fbe007a
:10065000849fbe00869fbe000000fa003905070097
:10066000c048a90010002000310507000080fa00f2
:100670004f03be004f02be004f01be004f00be0040
:100680003600f900004006003600f800809fbe00ea
:10069000829fbe00849fbe00869fbe000000fa00bd
:1006a000c068a90020002000210507000080fa0092
:1006b0004f03be004f02be004f01be004f00be0000
:1006c0003600f900004006003600f800809fbe00aa
:1006d000829fbe00849fbe00869fbe000000fa007d
:1006e000c088a90030002000110507000080fa0032
:1006f0004f03be004f02be004f01be004f00be00c0
:100700003600f900004006003600f800809fbe0069
:10071000829fbe00849fbe00869fbe000000fa003c
:10072000c0a8a90040002000010507000080fa00d1
:100730004f03be004f02be004f01be004f00be007f
:100740003600f900004006003600f800809fbe0029
:10075000829fbe00849fbe00869fbe000000fa00fc
:10076000c608a90070002000f10407000080fa000c
:100770004f03be004f02be004f01be004f00be003f
:100780003600f900004006003600f800809fbe00e9
:10079000829fbe00849fbe00869fbe000000fa00bc
:1007a0002146800000102000008060000000e00072
:1007b00003003200c508a900c0002000dc040700c7
:1007c0002146800000002800008060000000e0005a
:1007d00003003200c5e8a90080002000d40407000f
:1007e0002146800000022000008060000000e00040
:1007f00003003200c4a8a90090002000cc04070028
:1008000020468000700060000000e000030032001d
:10081000c488a900a0002000c5040700ffff37001e
:100820003600f800809fbe00829fbe00849fbe00fd
:10083000869fbe000000fa00008080000000e000fb
:10084000020032000080800000000100300321001f
:10085000104078008040e800300321000148780013
:100860002003210011c0b300014878000068a900ee
:100870000080fa004f03be004f02be004f01be00d1
:100880004f00be003600f900004006000040da00cc
:100890000000fe00000005006022b80006022000f3
:1008a0000000d0008180d2000482d2008582d20074
:1008b0000000a0000202520083825a0003003100af
:1008c0000202420083824a000000a1000603e90000
:1008d000f3ff3a0000000600efff07000400be002f
:0408e000000006000e
:020000040000fa
:1008e4003031000032330000343500003637000068
:1008f40038390000414200004344000045460000ee
:10090400007f000082850000888b00008f92000029
:10091400959800009b9e0000a1a40000a7aa0000d7
:10092400adb00000b3b50000b8bb0000bec100000c
:10093400c3c60000c8cb0000cdd00000d2d5000053
:10094400d7d90000dbdd0000dfe10000e3e50000b3
:10095400e7e90000ebec0000eeef0000f1f200002c
:10096400f3f50000f6f70000f8f90000fafa0000c9
:10097400fbfc0000fcfd0000fdfd0000fefe00008d
:10098400fefe0000fefe0000fefd0000fdfc000077
:10099400fcfb0000fbfa0000f9f80000f7f6000089
:1009a400f5f40000f3f10000f0ef0000edeb0000bf
:1009b400eae80000e6e40000e2e00000dedc00001b
:1009c400dad80000d6d30000d1cf0000ccca000092
:1009d400c7c40000c2bf0000bcba0000b7b4000026
:1009e400b1ae0000aba80000a6a300009f9c0000cd
:1009f40099960000939000008d8a0000878400007f
:100a0400817d00007a770000747100006e6b000035
:100a140068650000625f00005b58000056530000e8
:100a2400504d00004a470000444200003f3c000093
:100a34003a370000343200002f2d00002b2800002c
:100a440026240000222000001e1c00001a180000aa
:100a540016140000131100000f0e00000d0b00000f
:100a64000a0900000807000006050000040300004e
:100a74000302000002010000010000000000000069
:100a8400000000000000000001010000010200005d
:100a9400020300000404000005060000070800002b
:100aa400090b00000c0d00000f10000012130000d1
:100ab40015170000191b00001d1f00002123000052
:100ac40025270000292c00002e31000033360000b9
:100ad400383b00003d40000043460000494b000005
:100ae4004e510000545700005a5d0000606300003e
:100af400666900006c6f000073760000797c00006a
:100b04007f4900006e69000074690000616c000098
:100b1400697a000061740000696f00006e0d0000c6
:100b24000a0000000d0a0000535400004154000064
:100b3400555300002052000045470000495300006f
:100b4400544500005220000028310000293a0000da
:100b5400200000000d0a0000000d00000a530000f0
:100b64005441000054550000532000005245000039
:100b7400474900005354000045520000202800005b
:100b8400322900003a200000004300004f4e0000cc
:100b94004649000047200000524500004749000034
:100ba40053540000455200003a200000000d00009c
:100bb4000a41000044440000522000005049000053
:100bc40050450000203000003a2000003a20000088
:080bd400307800000000000071
:020000040000fa
:100bdc000000fa002d4ea9002daea8000970ef0000
:100bec000870ef00c00221008040eb000148780043
:100bfc00d00221008040eb0001487800e002210087
:100c0c008040eb0001487800f00221008040eb00ae
:100c1c0001487800000321008040eb000148780077
:100c2c000080fa00000006000200fa000040eb0011
:100c3c00004f78000830a8000870a8000810a80021
:100c4c0012c0b300810021000040eb004a000700f5
:100c5c0009f0b70040592800c001070009d0bf00b7
:100c6c000080fb008000eb00c35a280022c0b300b8
:100c7c00cf01070012c0b3008e0078000040eb00db
:100c8c005d00070009f0b700f05a2800b301070017
:100c9c0009d0bf000080fb008000eb00c35a280085
:100cac0022c0b300c2010700705c2800ab01070032
:100cbc001e4078000080fb008000eb00c35a280027
:100ccc0022c0b300ba01070052c0b300c102210018
:100cdc00a0c0b3004800070009f0b700905d2800e1
:100cec009e01070000032100104078000080fb00eb
:100cfc008000eb00d35e280002c1b300ac010700fa
:100d0c00f0022100104078000080fb008000eb0016
:100d1c00d35e280002c1b300a5010700e002210048
:100d2c00104078000080fb008000eb00d35e2800b0
:100d3c0002c1b3009e010700d002210010407800d0
:100d4c000080fb008000eb00d35e280002c1b300e2
:100d5c0097010700c0022100104078000080fb00c2
:100d6c008000eb00c35a280002c1b30090010700b9
:100d7c000080fa00000006000800fa0020479800e6
:100d8c0021079800624798000040eb00004f780064
:100d9c00318080002e4090000054a0000100010022
:100dac00004f780007003700318080002e00900043
:100dbc00104078002e0190000201e80022079800f4
:100dcc00010001006e4090000080fb000000ea0072
:100ddc004f00de0000407800ee4090008140e900ba
:100dec00614798000004e000efff3a001e407800d5
:100dfc000080fa00000006000800fa002047980066
:100e0c0021079800624798000040eb00004f7800e3
:100e1c00318080002e40900001000100004f7800ce
:100e2c00080037003180800000c0eb000100010099
:100e3c00ae009000804878002e0090000000e80082
:100e4c00200798006e4090000080fb000000ea0034
:100e5c004f00de0000407800ee4090008140e90039
:100e6c00614798000004e000eeff3a001e40780055
:100e7c000080fa00000006000000fa000080fa0072
:100e8c00000006000000fa0010022000101288007a
:100e9c001000200020128800c000280000128800da
:100eac000080fa00000006000400fa00000f780031
:100ebc001107980000000000001280006200600022
:100ecc000000e000fcff3a001e00780010407800a3
:100edc000080fb004012880000000000011280001e
:100eec0000022000008060000000e000fbff3a00e0
:100efc0040128000804078001e009000014878006d
:100f0c000080fa00000006001800fa00100f98008c
:100f1c00210f9800320f98000000eb00000f7800b2
:100f2c000000eb00100798000000eb007007980021
:100f3c000000eb00000f98001000200060079800e4
:100f4c001e0890000000e00005003a000000eb00d5
:100f5c0050079800700047002007980004003700e5
:100f6c00ee009000510798009e0890002107980011
:100f7c003e0890000000e00005003a000000eb0085
:100f8c00400798006e0047003007980005003700b6
:100f9c00ee00900041079800be08900031079800c1
:100fac000000000000128000620060000000e00001
:100fbc00fcff3a001d003700001280006200600048
:100fcc000000e00009003a002e009000104078006c
:100fdc000080fb0040128800ae0090005e00900084
:100fec0000804000200798001e0fe80001128000ce
:100ffc0000022000008060000000e0000b003a00be
:10100c0040128000804078003e009000014878003b
:10101c00be0090004e009000008040003007980009
:10102c001e0090000000e800100798002e089000a9
:10103c009e007800808f5000dfff390010003700d1
:10104c000112800000022000008060000000e0001f
:10105c000b003a0040128000804078003e00900067
:10106c0001487800be0090004e00900000804000c7
:10107c00300798001e0090000000e8001007980050
:10108c009e0090002e089000808f5000ecff3900dd
:10109c001e0078000080fa00000006000400fa0030
:1010ac00204798000e80e8008e0078007eff070035
:1010bc001e4078000080fa00000006000600fa00ce
:1010cc00000f780011079800220798002e0190005d
:1010dc009e0090001e0078008bff07000080fa0035
:1010ec00000006000000fa001112800000402000f1
:1010fc00008060000000e00002003a000000eb00fd
:10110c0001003700100020000080fa0000000600eb
:10111c000000fa00001280000080fa0000000600b7
:10112c000000fa00003a80000080fa00000006007f
:10113c000200fa00faff0700000f78001e0078008a
:10114c00240007000004e000020032000000280028
:10115c00710007001e0078002a0007000004e00060
:10116c0002003200000024006b0007001e00780013
:10117c00320007000004e0000200320000202000d2
:10118c00650007001e0078003a0007000004e0002c
:10119c0002003200000820005f0007001e007800eb
:1011ac00420007000004e0000200320000042000ae
:1011bc00590007001e0078004a0007000004e000f8
:1011cc000200320000012000530007000080fa00ea
:1011dc00000006000400fa00100798000040eb0025
:1011ec00004f78001e0090000000e00002003d005f
:1011fc0010c0b300004f78001e4078000080fa0049
:10120c00000006000400fa00100798000040eb00f4
:10121c00004f78009e0090000000240000806000c9
:10122c000000e0000200320010c0b300004f780054
:10123c001e4078000080fa00000006000400fa004e
:10124c00100798000040eb00004f78009e009000c3
:10125c0000202000008060000000e000020032004e
:10126c0010c0b300004f78001e4078000080fa00d8
:10127c00000006000400fa00100798000040eb0084
:10128c00004f78009e009000000820000080600055
:10129c000000e0000200320010c0b300004f7800e4
:1012ac001e4078000080fa00000006000400fa00de
:1012bc00100798000040eb00004f78009e00900053
:1012cc0000042000008060000000e00002003200fa
:1012dc0010c0b300004f78001e4078000080fa0068
:1012ec00000006000400fa00100798000040eb0014
:1012fc00004f78001e009000700060000000e000bd
:10130c000200320010c0b300004f78001e4078007d
:10131c000080fa00000006000200fa00000f7800be
:10132c009e80ea00003a800000806000003a88004d
:10133c000080fa00000006000000fa004027ef00d1
:10134c000080fa00000006000000fa003058280067
:10135c00020007000080fa00000006000400fa00fa
:10136c00100798000000eb00000f78000500370014
:10137c001e0090001e00400010407800c9000700bd
:10138c001e0fe8001e0090001e0040001040780068
:10139c000004e00004003200e00f20009e00780002
:1013ac00808f5000f2ff36000080fa00000006002b
:1013bc002a00fa00889fbe00101798002117980089
:1013cc0062679800431798000040eb00004f7800cc
:1013dc001e84fb00298080006e6090000080fb0062
:1013ec008000eb001e129000ae1290000001be00b7
:1013fc000400be0035fd07000000780000804400aa
:10140c0010407800804078000800e80001777800f0
:10141c006e6090000080fb008000eb000001be00bd
:10142c001e109000ae10900018fd070010179800c9
:10143c00211798001e4fe8001e109000ae1090006f
:10144c00e00f5000e08f5800e1ff3a001e4fe9001a
:10145c001e80fb000000e8006e4078009100070041
:10146c001e4078000004e000f8ff3a004e10900097
:10147c00104078000004e000020032004e10900092
:10148c00b6ff07004f04be000080fa000000060003
:10149c000000fa00d0c0b30082000700a0c0b30067
:1014ac00800007000080fa00000006000400fa002b
:1014bc00204798000e80e8008e0078007afe070026
:1014cc001e4078000080fa00000006000000fa00c0
:1014dc000021ef00c007200010088800000328003e
:1014ec0020088800008080000000e00002003a0024
:1014fc0060ac2000250007000068a9002068a80047
:10150c00200321008040eb00014878000270ef00be
:10151c000080fa00000006000200fa00000f7800bc
:10152c009e00780011088800200321008040eb0009
:10153c00014878000080fa00000006000000fa0064
:10154c00100880000080fa00000006000200fa007b
:10155c00000f78009e00780001088800200321000d
:10156c008040eb00014878000080fa000000060083
:10157c000000fa00000880000080fa00000006005d
:10158c000000fa000080fa00000006000200fa00d9
:10159c00000f78002068a9009e0078000180880068
:1015ac002068a8000080fa00000006000000fa0085
:1015bc00200321008040eb00014878002068a8003f
:1015cc0005e1a8000080fa00000006000000fa0007
:1015dc0005e1a9002068a9000080fa0000000600bf
:1015ec000200fa0020032100104f78001e40780002
:1015fc000004e00003003200200321008040eb00d7
:10160c00014878001e4078000080fa0000000600b7
:10161c000000fa0030032100104078000080fb002d
:10162c000080fa00000006000000fa0030032100e0
:10163c008040eb00014878000080fa0000000600b2
:10164c000000fa0080002000001188002222ef0028
:10165c00400420004011880021e2a8002342a80089
:10166c000080fa00000006000000fa0000000000f4
:10167c0010118000610060000000e000fcff3200ef
:10168c0010118000620060000000e00001003200d8
:10169c002222a90030118000004078000080fa005e
:1016ac00000006000200fa00004f78000000000065
:1016bc001111800000202000008060000000e0007c
:1016cc00fbff3a001e80fb00201188000080fa000e
:1016dc00000006000000fa001011800000407800a5
:1016ec00614060000080fb0000f0a7000000ea00f1
:1016fc000000ea004f00de00004078000080fa0095
:10170c00000006000000fa001111800000202000eb
:10171c00008060000000e00007003a00111180001a
:10172c0000402000008060000000e0000200320059
:10173c0010002000010037000000eb000040780092
:10174c000080fa00000006000000fa001011800072
:10175c004800de00614060000080fb0000f0a70044
:10176c000000ea000000ea004f00de0000407800b4
:10177c000080fa00000006000000fa001011800042
:10178c000080fa00000006000000fa0021e2a80028
:10179c002342a8000080fa00000006000000fa00b6
:1017ac0021e2a9002342a9000080fa0000000600f3
:1017bc000000fa00042eef00182eef002c2eef0084
:1017cc00402eef00542eef00682eef007c2eef0021
:1017dc0030f8210000708800e0ff2f00a070880016
:1017ec0060b821004071880000162000e07188006c
:1017fc0000002f00807288003000200020738800c9
:10180c00003c2000c07388000c2eef00202eef004f
:10181c00342eef00482eef005c2eef00702eef0000
:10182c00842eef000a2eef001e2eef00322eef005a
:10183c00462eef005a2eef006e2eef00822eef0098
:10184c00062eef001a2eef002e2eef00422eef0088
:10185c00562eef006a2eef007e2eef0030c82100ce
:10186c0070708800e03820001071880060802000c3
:10187c00b071880000002f00f0728800003c20003e
:10188c0030748800113a8000f00b20000081600059
:10189c00600420007105200023742000804978002a
:1018ac008149780082497800d133800000fc2f00f8
:1018bc00008060000000a000d0338800103a800047
:1018cc00000178000260a000600420007105200077
:1018dc00237420008049780081497800824978007f
:1018ec000080fa00000006000800fa000000eb007f
:1018fc00000f78000000eb00100798000000eb00d0
:10190c00200798000040eb00604798007900070022
:10191c00affc07008cfe0700c3fc0700010037007a
:10192c000000000002d0bf008080fb002e00900061
:10193c00808f5000090036006e409000dbfe0700df
:10194c006e4090000040e8006047980002d0bf0055
:10195c000080fb006a0040002007980002d0bf0006
:10196c008080fb001e009000808f50000400360029
:10197c0002d0bf000080fb004006b00010079800aa
:10198c0002d0bf000080fb009e0f5000e4ff360029
:10199c0002d0bf000080fb00813e2000010f400000
:1019ac00e0ff37000000fa0020102300203a8800e6
:1019bc004827ef004e27ef00e0032000303a880064
:1019cc006027ef006227ef006427ef006627ef0027
:1019dc006a27ef006c27ef006e27ef003200200023
:1019ec0080072000a1092000337420008049780072
:1019fc0081497800824978001200200060042000a0
:101a0c0071052000237420008049780081497800fa
:101a1c008249780000000000103a800061006000ec
:101a2c000000e000fcff3a0000000000113a8000ca
:101a3c0000022000008060000000e000fbff32008c
:081a4c000080fa000000060012
:020000040000fa
:101a540004100000020000008200000072840000f4
:101a64002c1000000600000080000000061000009a
:101a740002000000820000005c0a00000810000060
:101a840002000000800000000c1000002000000094
:101a9400800000000a100000020000008200000024
:101aa400ffff000032100000020000008000000070
:101ab400001000000400000080000000000000008e
:020000040000fa
:101ac4000200fa00000f780021028000200f20009d
:101ad400008060001e007000200288000080fa0070
:101ae400000006000000fa00c3e8a800000000009f
:101af400000000000080fa00000006000000fa0068
:101b04002dff070015000700a8ff0700dffc0700f2
:101b1400cdfe07006ffe0700f2ff07000002200061
:101b2400e7ff07000080fa00000006000200fa0048
:101b3400000f78009e00780051808800ffff370076
:101b44000000fa00c0002100800778004002210054
:101b5400000188000080fa00000006000000fa007e
:101b640001428000f0ff28000080600000c0a00057
:0c1b7400004288000080fa00000006001b
:020000040000fa
:020000040005f5
:04570000ffff0000a7
:020000040000fa
:020000040005f5
:04572000ffff000087
:020000040000fa
:020000040005f5
:0457300078ff0000fe
:020000040000fa
:020000040005f5
:045738007aff0000f4
:020000040000fa
:020000040005f5
:045740009fff0000c7
:020000040000fa
:020000040005f5
:04574800ffff00005f
:020000040000fa
:020000040005f5
:04575000feff000058
:020000040000fa
:020000040005f5
:04575800000000004d
:020000040000fa
:020000040005f5
:045760000000000045
:020000040000fa
:020000040005f5
:04576800000000003d
:020000040000fa
:020000040005f5
:045770000000000035
:020000040000fa
:020000040005f5
:04577800feff000030
:020000040000fa
:020000040005f5
:04578000ffff000027
:020000040000fa
:020000040005f5
:04578800ffff00001f
:00000001FF
