:020000040000FA
:04000000803114280F
:100008007E1480318B1A0B1D0D2885312E258031E9
:1000180012288B190B1C122885318F257E10090098
:100028008031162885319F258031ED008531A02546
:10003800EE00DC01DD01DE01DF01E001E101E201AA
:10004800E301E401E501E601E7017E1020008231C9
:10005800662A7F348234853488348B348F349234E2
:10006800953498349B349E34A134A434A734AA34EC
:10007800AD34B034B334B534B834BB34BE34C13421
:10008800C334C634C834CB34CD34D034D234D53468
:10009800D734D934DB34DD34DF34E134E334E534C8
:1000A800E734E934EB34EC34EE34EF34F134F23441
:1000B800F334F534F634F734F834F934FA34FA34DE
:1000C800FB34FC34FC34FD34FD34FD34FE34FE34A2
:1000D800FE34FE34FE34FE34FE34FD34FD34FC348C
:1000E800FC34FB34FB34FA34F934F834F734F6349E
:1000F800F534F434F334F134F034EF34ED34EB34D4
:10010800EA34E834E634E434E234E034DE34DC342F
:10011800DA34D834D634D334D134CF34CC34CA34A6
:10012800C734C434C234BF34BC34BA34B734B4343A
:10013800B134AE34AB34A834A634A3349F349C34E1
:1001480099349634933490348D348A348734843493
:1001580081347D347A347734743471346E346B344A
:100168006834653462345F345B34583456345334FD
:1001780050344D344A344734443442343F343C34A8
:100188003A343734343432342F342D342B34283441
:1001980026342434223420341E341C341A341834BF
:1001A80016341434133411340F340E340D340B3424
:1001B8000A34093408340734063405340434033463
:1001C800033402340234013401340034003400347E
:1001D8000034003400340034013401340134023472
:1001E8000234033404340434053406340734083440
:1001F80009340B340C340D340F34103412341334E6
:100208001534173419341B341D341F342134233466
:100218002534273429342C342E34313433343634CD
:1002280038343B343D3440344334463449344B3419
:100238004E345134543457345A345D346034633452
:10024800663469346C346F347334763479347C347E
:100258007F342000E714E71567146730CD004D0898
:10026800F500F601F60A00308331FF2381312000C2
:10027800CE004E08E1008C30F1008430F200843169
:100288004C24813120006108CD00CE01CF01D0017E
:100298005008A3004F08A2004E08A1004D08A00076
:1002A8000230D1005108A4001A30A5008530A600FC
:1002B8008131F421813162302000CD004D08F500F4
:1002C8000530CE004E08F6000A308331D123813143
:1002D8002000CF004F08E100E830F1008430F20040
:1002E80084314C24813120006608CD00CE01CF0135
:1002F800D0015008A3004F08A2004E08A1004D08E5
:10030800A0001030D1005108A400F830A5008430B6
:10031800A6008131F421813120006508CD00CE018D
:10032800CF01D0015008A3004F08A2004E08A10039
:100338004D08A0001030D1005108A400F830A500E5
:100348008430A6008131F421813120006408CD0079
:10035800CE01CF01D0015008A3004F08A2004E08DB
:10036800A1004D08A0001030D1005108A400F830B9
:10037800A5008430A6008131F42181312000630872
:10038800CD00CE01CF01D0015008A3004F08A20034
:100398004E08A1004D08A0001030D1005108A4005B
:1003A800F830A5008430A6008131F4218131200085
:1003B8006208CD00CE01CF01D0015008A3004F083C
:1003C800A2004E08A1004D08A0001030D10051082D
:1003D800A4001A30A5008530A6008131F421080058
:1003E8002000CC012408A700A801A901AA012A0815
:1003F800F3002908F2002808F1002708F000230874
:10040800F7002208F6002108F5002008F4008331DF
:100418002923813171088500700884001D30840704
:100428008530853D00082000AB004C082C3E860036
:1004380087012B0881002408A700A801A901AA01A7
:100448002A08F3002908F2002808F1002708F0001C
:100458002308F7002208F6002108F5002008F40018
:100468008231D722813173082000A3007208A200CC
:100478007108A1007008A0000130A7002708CC0768
:100488002308220421042004031DF6290130CC028C
:100498004C082C3E860087010108853149258131A9
:1004A80020004C08031D4A2A2508840026088500D8
:1004B8001200031908002608F2002508F10084310B
:1004C8004C2408002000D501D601D701D801D90154
:1004D800DA01DB018431D32482318B170B17853184
:1004E8009925823185315825823184316D248231B4
:1004F8001A302000D300F830890B802AD30B802AC9
:10050800000081312D21823120005D085A02031D2F
:100518008F2A5C0859020318BA2A5B082D3E84000A
:1005280080300318013E85000008D300D401530829
:10053800F0005408F10085317D25823185319C25F4
:10054800823120005B08D3005308F0005F088A005E
:100558005E080A00823101302000D3005308DB070F
:100568005C080A3ED90000305D3DDA005D0858029B
:10057800031DC02A5C0857020318C82A5C08643E99
:10058800D70000305D3DD8005D085602031DCE2A15
:100598005C0855020318882A5C08E83ED500033039
:1005A8005D3DD600882A0030FC000030FB0000309A
:1005B800FA000030F900730872047104700403191A
:1005C800202BFD01FD0AF31BF52A0130F035F10D52
:1005D800F20DF30D890BEA2A0130F8007808FD07BF
:1005E800E72A0130F935FA0DFB0DFC0D890BF62AC7
:1005F80073087702031D0A2B72087602031D0A2B63
:1006080071087502031D0A2B70087402031C152B50
:100618007008F4027108F53B7208F63B7308F73B63
:1006280079140130F336F20CF10CF00C890B162B0F
:100638000130FD02031DF52A7C08F3007B08F20057
:100648007A08F1007908F000080073087204710450
:1006580070040319622BF901F90AF31B3F2B0130CF
:10066800F035F10DF20DF30D890B342B0130F80044
:100678007808F907312B73087702031D4D2B720890
:100688007602031D4D2B71087502031D4D2B700852
:100698007402031C572B7008F4027108F53B7208AA
:1006A800F63B7308F73B0130F336F20CF10CF00C13
:1006B800890B582B0130F902031D3F2B7708F300F3
:1006C8007608F2007508F1007408F0000800F301DC
:1006D8000730F1007108F4007008F100740A752BF6
:1006E800F136890B742B01307105F20022000E08D7
:1006F8007206FE3972068E002130890B812B0000AC
:1007080022000E152130890B872B000020000E0CCB
:100718000139F100740A912BF135890B902B71087E
:10072800F2007208F30422000E110130F40274087A
:10073800031D702B7308080022008C018E012B30DA
:1007480021008C0022308E0023008E0101308C00A5
:1007580024008C018E012100951725008C018E0143
:10076800373026008C003F308E003F3027008C0049
:100778003F308E00931292169112A130F00005308E
:10078800F100853165258B1515303C009500033047
:100798003D00A3000930A4000800F90022000C1154
:1007A8007908F7007708F00020005F088A005E08E3
:1007B8000A008331F8007808FA000130F602760A58
:1007C8000319FB2BFF30F7007708F00020005F08C3
:1007D8008A005E080A008331F800750886008701E0
:1007E800780881000130F7007708F507E12B22002F
:1007F8000C157A080800F90022000C117908203835
:10080800F7007708F00020005F088A005E080A00F9
:100818008431F8007808FA000130F602760A0319E4
:10082800272C7508860087010108F7007708F00073
:1008380020005F088A005E080A0084310130F70052
:100848007708F507102C22000C157A0808000830E4
:1008580023009F0090309D0024309E0022309B0092
:100868009C010030F0000030F100853171258431A1
:100878000030F0000030F10085316B258431003004
:10088800F0000030F100853177252000E0010800F4
:10089800F401F5017108740784007208753D85003C
:1008A80012000319080000307502FF3003197402A2
:1008B800031808007108740784007208753D8500E4
:1008C80000088531492584310130F4070030F53DB1
:1008D8004E2C6B30F0000330F10085318325220067
:1008E8000C120C152000E101E701E201E20A0230D6
:1008F800F2007208E3000330F2007208E4000430EA
:10090800F2007208E5000530F2007208E6000800FF
:100918000D340A3453345434413454345534533434
:1009280020345234453447344934533454344534EC
:10093800523420342834313429343A3420340034C1
:100948003B009C019D0120309E0080309F00A0014B
:100958009201910194017F3093009601FE30950039
:100968009801013097009A01990180309B00080096
:1009780021001508C03913389500833020009500F0
:100988008330F2007208EC000B118B16DC01DD01DC
:100998008930F0000530F10085315F25080083318A
:1009A800A0238431853151258431853195258431C1
:1009B8008431A42484318431FA2484318431BC24E0
:1009C800843184312B2408000D340A3441344434F2
:1009D800443452342034503449345034453420346B
:1009E80030343A3420343A34203400342000990129
:1009F800FF309700D8309600111017082100A10089
:100A0800200016082100A0004130200098000800AE
:100A180049346E3469347434693461346C346934FB
:100A28007A346134743469346F346E340D340A3472
:100A380000343034313432343334343435343634A9
:100A48003734383439344134423443344434453407
:100A5800463400340B1120006C08950068086904BE
:100A68000319080069088A0068080A008531080027
:100A780020006A086B040319462D6B088A006A086F
:100A88000A008531270093120800F0002000111E8B
:100A98004A2D700823009A0008007230210099003E
:100AA80098012200960108000C30F1008530F20010
:100AB80084314C24080071082000E9007008E8001F
:100AC800080071082000EB007008EA0008007108AF
:100AD8002100A5007008A400080071082100A700E3
:100AE8007008A600080071082100A3007008A20081
:100AF800080071083B009400700893000800710812
:100B08002000DF007008DE00080001302000DC074C
:100B18000030DD3D08002700931E080085313C2584
:100B2800080016302100970008003B009B170800BA
:0C0B38003B009F1708001D3485340800A6
:020000040001F9
:04000E00E4FFFFDE2E
:00000001FF
