:020000040000FA
:04000000803114280F
:100008007E1480318B1A0B1D0D28833131238031EA
:1000180012288B190B1C1228833198237E10090093
:10002800803116288331A8238031C8008331A92361
:100038008031C900203084000030850011308331C0
:1000480062237E102000813129297F34823485344F
:1000580088348B348F349234953498349B349E345E
:10006800A134A434A734AA34AD34B034B334B5348D
:10007800B834BB34BE34C134C334C634C834CB34CA
:10008800CD34D034D234D534D734D934DB34DD341C
:10009800DF34E134E334E534E734E934EB34EC3489
:1000A800EE34EF34F134F234F334F534F634F73413
:1000B800F834F934FA34FA34FB34FC34FC34FD34C3
:1000C800FD34FD34FE34FE34FE34FE34FE34FE349A
:1000D800FE34FD34FD34FC34FC34FB34FB34FA3498
:1000E800F934F834F734F634F534F434F334F134BD
:1000F800F034EF34ED34EB34EA34E834E634E43405
:10010800E234E034DE34DC34DA34D834D634D33470
:10011800D134CF34CC34CA34C734C434C234BF34F5
:10012800BC34BA34B734B434B134AE34AB34A83494
:10013800A634A3349F349C34993496349334903441
:100148008D348A348734843481347D347A347734F6
:10015800743471346E346B346834653462345F34AB
:100168005B3458345634533450344D344A3447345D
:10017800443442343F343C343A34373434343234FF
:100188002F342D342B34283426342434223420348C
:100198001E341C341A3418341634143413341134FD
:1001A8000F340E340D340B340A3409340834073450
:1001B800063405340434033403340234023401347D
:1001C8000134003400340034003400340034003486
:1001D8000134013401340234023403340434043465
:1001E800053406340734083409340B340C340D3420
:1001F8000F341034123413341534173419341B34B3
:100208001D341F34213423342534273429342C3425
:100218002E3431343334363438343B343D3440347E
:100228004334463449344B344E34513454345734BF
:100238005A345D3460346334663469346C346F34F2
:100248007334763479347C347F342000C101C201A0
:10025800C301C401C501C601C7018231EC22813145
:100268008B170B178331A223813183315B238131B3
:1002780081318C2181311A30FC00F830890B4229F8
:10028800FC0B42290032200021084602031D4E299A
:100298002008450203186F294708293E840080304A
:1002A8000318013E85000008FC00FD017C08F000F1
:1002B8007D08F1008331862381318331A523813183
:1002C8000130FC007C082000C70720080A3EC50052
:1002D8000030213DC60021084402031D752920086D
:1002E800430203187D292008643EC3000030213DE5
:1002F800C40021084202031D832920084102031873
:1003080047292008E83EC1000330213DC2004729A3
:10031800E030F0000130F10083318C23813122007C
:100328000C120C1526302000BE003E08F600F7011E
:10033800F70A003082314D2281312E302000BE0074
:100348003E08F600F701F70A033082314D22813169
:100358002F302000BE003E08F600F701F70A0430EF
:1003680082314D2281312C302000BE003E08F6003B
:10037800F701F70A053082314D2281312D302000F6
:10038800BE003E08F600F701F70A063082314D221A
:10039800813127302000BE003E08F6000530BF003E
:1003A8003F08F700103082314D222000C00040087D
:1003B800A500B001B00A0800F3010730F100710888
:1003C800F500F4017008F100750AEB29F136890B84
:1003D800EA2901307105F20022000E087206FE3982
:1003E80072068E002130890BF729000022000E15B5
:1003F8002130890BFD29000020000E0C0139F10085
:10040800750A072AF135890B062A7108F200720865
:10041800F30422000E110130F5020130F1007108D9
:10042800F40708307402031CE62973080800023038
:1004380022008C008E012B3021008C0022308E008F
:1004480023008E0101308C0024008C018E012100D4
:10045800951725008C018E01373026008C003F301F
:100468008E003F3027008C003F308E00931292168A
:100478009112AA30F0000330F10083316E238B15FE
:1004880015303C00950003303D00A3000930A4005E
:100498000800FA0022000C117A08F8007808F00029
:1004A800200023088A0022080A008231F90079080E
:1004B800FB000130F702770A0319772AFF30F800AA
:1004C8007808F000200023088A0022080A008231F8
:1004D800F900760886008701790881000130F80064
:1004E8007808F6075D2A22000C157B0808000830FA
:1004F80023009F0090309D0024309E0022309B00F6
:100508009C010030F0000030F10083317A23823101
:100518000030F0000030F100833174238231003064
:10052800F0000030F100833180232000A40108008E
:10053800F401F5017108740784007208753D85009F
:1005480012000319080000307502FF300319740205
:10055800031808007108740784007208753D850047
:10056800000883314C2382310130F4070030F53D17
:100578009E2A3B009C019D0120309E0080309F00F8
:10058800A0019201910194017F3093009601FE3001
:1005980095009801013097009A01990180309B00DD
:1005A800080021001508C039133895008330200051
:1005B80095008330F2007208BD000B118B16A00164
:1005C800A1019230F0000330F10083316823080064
:1005D80082311B22823183315423823183319E231D
:1005E80082318231BD2282318331232382318231AB
:1005F800D522823182317B22080049346E34693435
:100608007434693461346C3469347A3461347434E0
:1006180069346F346E340D340A3400343034313474
:100628003234333434343534363437343834393476
:100638004134423443344434453446340034200091
:100648009901FF309700D830960011101708B200B2
:100658001608B1004130980008000B1120003D0831
:100668009500330834040319080034088A00330855
:100678000A00833108002000350836040319492B85
:1006880036088A0035080A008331270093120800CB
:10069800F0002000111E4D2B700823009A0008005E
:1006A800723021009900980122009601080001305B
:1006B800F1008330F20082319C220800640080013E
:1006C8000131890B632B003471082000B4007008D5
:1006D800B300080071082000B6007008B5000800D3
:1006E80071082000BA007008B900080071082000DD
:1006F800BC007008BB00080071082000B800700832
:10070800B700080071083B009400700893000800C7
:1007180071082000A3007008A20008000130200022
:10072800A0070030A13D08002700931E0800833170
:100738003F23080016302100970008003B009B1754
:0E07480008003B009F1708001234833408009D
:020000040001F9
:04000E00E4FFFFDE2E
:00000001FF
